{
  "_format": "hh-sol-artifact-1",
  "contractName": "CurveMFPAddLiquidityAssetManager",
  "sourceName": "contracts/defi/curve/CurveMFPAddLiquidityAssetManager.sol",
  "abi": [
    {
      "inputs": [
        {
          "internalType": "address",
          "name": "assetPoolERC20",
          "type": "address"
        },
        {
          "internalType": "address",
          "name": "assetPoolERC721",
          "type": "address"
        },
        {
          "internalType": "address",
          "name": "assetPoolETH",
          "type": "address"
        },
        {
          "internalType": "address",
          "name": "verifierHub",
          "type": "address"
        },
        {
          "internalType": "address",
          "name": "relayerHub",
          "type": "address"
        },
        {
          "internalType": "address",
          "name": "feeManager",
          "type": "address"
        },
        {
          "internalType": "address",
          "name": "complianceManager",
          "type": "address"
        },
        {
          "internalType": "address",
          "name": "merkleTreeOperator",
          "type": "address"
        },
        {
          "internalType": "address",
          "name": "mimc254",
          "type": "address"
        },
        {
          "internalType": "address",
          "name": "initialOwner",
          "type": "address"
        }
      ],
      "stateMutability": "nonpayable",
      "type": "constructor"
    },
    {
      "inputs": [
        {
          "internalType": "address",
          "name": "target",
          "type": "address"
        }
      ],
      "name": "AddressEmptyCode",
      "type": "error"
    },
    {
      "inputs": [
        {
          "internalType": "address",
          "name": "account",
          "type": "address"
        }
      ],
      "name": "AddressInsufficientBalance",
      "type": "error"
    },
    {
      "inputs": [],
      "name": "AmountNotCorrect",
      "type": "error"
    },
    {
      "inputs": [],
      "name": "AssetNotInPool",
      "type": "error"
    },
    {
      "inputs": [],
      "name": "FailedInnerCall",
      "type": "error"
    },
    {
      "inputs": [],
      "name": "LpTokenNotCorrect",
      "type": "error"
    },
    {
      "inputs": [],
      "name": "MerkleRootNotAllowed",
      "type": "error"
    },
    {
      "inputs": [],
      "name": "NoteAlreadyCreated",
      "type": "error"
    },
    {
      "inputs": [],
      "name": "NoteFooterUsed",
      "type": "error"
    },
    {
      "inputs": [],
      "name": "NullifierUsed",
      "type": "error"
    },
    {
      "inputs": [
        {
          "internalType": "address",
          "name": "owner",
          "type": "address"
        }
      ],
      "name": "OwnableInvalidOwner",
      "type": "error"
    },
    {
      "inputs": [
        {
          "internalType": "address",
          "name": "account",
          "type": "address"
        }
      ],
      "name": "OwnableUnauthorizedAccount",
      "type": "error"
    },
    {
      "inputs": [],
      "name": "PoolNotSupported",
      "type": "error"
    },
    {
      "inputs": [],
      "name": "RelayerNotRegistered",
      "type": "error"
    },
    {
      "inputs": [
        {
          "internalType": "address",
          "name": "token",
          "type": "address"
        }
      ],
      "name": "SafeERC20FailedOperation",
      "type": "error"
    },
    {
      "anonymous": false,
      "inputs": [
        {
          "indexed": false,
          "internalType": "bytes32[4]",
          "name": "nullifiers",
          "type": "bytes32[4]"
        },
        {
          "indexed": false,
          "internalType": "bytes32",
          "name": "noteOut",
          "type": "bytes32"
        },
        {
          "indexed": false,
          "internalType": "uint256",
          "name": "amountOut",
          "type": "uint256"
        },
        {
          "indexed": false,
          "internalType": "bytes32",
          "name": "noteFooter",
          "type": "bytes32"
        }
      ],
      "name": "CurveAddLiquidity",
      "type": "event"
    },
    {
      "anonymous": false,
      "inputs": [
        {
          "indexed": true,
          "internalType": "address",
          "name": "previousOwner",
          "type": "address"
        },
        {
          "indexed": true,
          "internalType": "address",
          "name": "newOwner",
          "type": "address"
        }
      ],
      "name": "OwnershipTransferred",
      "type": "event"
    },
    {
      "stateMutability": "payable",
      "type": "fallback"
    },
    {
      "inputs": [],
      "name": "ASSET_ETH",
      "outputs": [
        {
          "internalType": "bytes32",
          "name": "",
          "type": "bytes32"
        }
      ],
      "stateMutability": "view",
      "type": "function"
    },
    {
      "inputs": [],
      "name": "ETH_ADDRESS",
      "outputs": [
        {
          "internalType": "address",
          "name": "",
          "type": "address"
        }
      ],
      "stateMutability": "view",
      "type": "function"
    },
    {
      "inputs": [],
      "name": "P",
      "outputs": [
        {
          "internalType": "uint256",
          "name": "",
          "type": "uint256"
        }
      ],
      "stateMutability": "view",
      "type": "function"
    },
    {
      "inputs": [
        {
          "internalType": "bytes",
          "name": "_proof",
          "type": "bytes"
        },
        {
          "components": [
            {
              "internalType": "bytes32",
              "name": "merkleRoot",
              "type": "bytes32"
            },
            {
              "internalType": "bytes32[4]",
              "name": "nullifiers",
              "type": "bytes32[4]"
            },
            {
              "internalType": "address[4]",
              "name": "assets",
              "type": "address[4]"
            },
            {
              "internalType": "uint256[4]",
              "name": "amounts",
              "type": "uint256[4]"
            },
            {
              "internalType": "address",
              "name": "pool",
              "type": "address"
            },
            {
              "internalType": "address",
              "name": "lpToken",
              "type": "address"
            },
            {
              "internalType": "bytes32",
              "name": "noteFooter",
              "type": "bytes32"
            },
            {
              "internalType": "address payable",
              "name": "relayer",
              "type": "address"
            },
            {
              "internalType": "uint256[4]",
              "name": "gasRefund",
              "type": "uint256[4]"
            }
          ],
          "internalType": "struct CurveMFPAddLiquidityAssetManager.AddLiquidityArgs",
          "name": "_args",
          "type": "tuple"
        }
      ],
      "name": "curveAddLiquidity",
      "outputs": [],
      "stateMutability": "payable",
      "type": "function"
    },
    {
      "inputs": [],
      "name": "getAssetPoolERC20",
      "outputs": [
        {
          "internalType": "address",
          "name": "",
          "type": "address"
        }
      ],
      "stateMutability": "view",
      "type": "function"
    },
    {
      "inputs": [],
      "name": "getAssetPoolERC721",
      "outputs": [
        {
          "internalType": "address",
          "name": "",
          "type": "address"
        }
      ],
      "stateMutability": "view",
      "type": "function"
    },
    {
      "inputs": [],
      "name": "getAssetPoolETH",
      "outputs": [
        {
          "internalType": "address",
          "name": "",
          "type": "address"
        }
      ],
      "stateMutability": "view",
      "type": "function"
    },
    {
      "inputs": [],
      "name": "getComplianceManager",
      "outputs": [
        {
          "internalType": "address",
          "name": "",
          "type": "address"
        }
      ],
      "stateMutability": "view",
      "type": "function"
    },
    {
      "inputs": [],
      "name": "getFeeManager",
      "outputs": [
        {
          "internalType": "address",
          "name": "",
          "type": "address"
        }
      ],
      "stateMutability": "view",
      "type": "function"
    },
    {
      "inputs": [],
      "name": "getMerkleTreeOperator",
      "outputs": [
        {
          "internalType": "address",
          "name": "",
          "type": "address"
        }
      ],
      "stateMutability": "view",
      "type": "function"
    },
    {
      "inputs": [],
      "name": "getMimc254",
      "outputs": [
        {
          "internalType": "address",
          "name": "",
          "type": "address"
        }
      ],
      "stateMutability": "view",
      "type": "function"
    },
    {
      "inputs": [],
      "name": "getRelayerHub",
      "outputs": [
        {
          "internalType": "address",
          "name": "",
          "type": "address"
        }
      ],
      "stateMutability": "view",
      "type": "function"
    },
    {
      "inputs": [],
      "name": "getVerifierHub",
      "outputs": [
        {
          "internalType": "address",
          "name": "",
          "type": "address"
        }
      ],
      "stateMutability": "view",
      "type": "function"
    },
    {
      "inputs": [],
      "name": "owner",
      "outputs": [
        {
          "internalType": "address",
          "name": "",
          "type": "address"
        }
      ],
      "stateMutability": "view",
      "type": "function"
    },
    {
      "inputs": [
        {
          "internalType": "address",
          "name": "asset",
          "type": "address"
        },
        {
          "internalType": "uint256",
          "name": "amount",
          "type": "uint256"
        }
      ],
      "name": "releaseToAsssetPool",
      "outputs": [],
      "stateMutability": "nonpayable",
      "type": "function"
    },
    {
      "inputs": [],
      "name": "renounceOwnership",
      "outputs": [],
      "stateMutability": "nonpayable",
      "type": "function"
    },
    {
      "inputs": [
        {
          "internalType": "address",
          "name": "assetPoolERC20",
          "type": "address"
        }
      ],
      "name": "setAssetPoolERC20",
      "outputs": [],
      "stateMutability": "nonpayable",
      "type": "function"
    },
    {
      "inputs": [
        {
          "internalType": "address",
          "name": "assetPoolERC721",
          "type": "address"
        }
      ],
      "name": "setAssetPoolERC721",
      "outputs": [],
      "stateMutability": "nonpayable",
      "type": "function"
    },
    {
      "inputs": [
        {
          "internalType": "address",
          "name": "assetPoolETH",
          "type": "address"
        }
      ],
      "name": "setAssetPoolETH",
      "outputs": [],
      "stateMutability": "nonpayable",
      "type": "function"
    },
    {
      "inputs": [
        {
          "internalType": "address",
          "name": "complianceManager",
          "type": "address"
        }
      ],
      "name": "setComplianceManager",
      "outputs": [],
      "stateMutability": "nonpayable",
      "type": "function"
    },
    {
      "inputs": [
        {
          "internalType": "address",
          "name": "feeManager",
          "type": "address"
        }
      ],
      "name": "setFeeManager",
      "outputs": [],
      "stateMutability": "nonpayable",
      "type": "function"
    },
    {
      "inputs": [
        {
          "internalType": "address",
          "name": "relayerHub",
          "type": "address"
        }
      ],
      "name": "setRelayerHub",
      "outputs": [],
      "stateMutability": "nonpayable",
      "type": "function"
    },
    {
      "inputs": [
        {
          "internalType": "address",
          "name": "verifierHub",
          "type": "address"
        }
      ],
      "name": "setVerifierHub",
      "outputs": [],
      "stateMutability": "nonpayable",
      "type": "function"
    },
    {
      "inputs": [
        {
          "internalType": "address",
          "name": "newOwner",
          "type": "address"
        }
      ],
      "name": "transferOwnership",
      "outputs": [],
      "stateMutability": "nonpayable",
      "type": "function"
    },
    {
      "stateMutability": "payable",
      "type": "receive"
    }
  ],
  "bytecode": "0x60c06040523480156200001157600080fd5b5060405162002f9938038062002f998339810160408190526200003491620001a5565b7f30644e72e131a029b85045b68181585d2833e84879b9709143e1f593f00000018a8a8a8a8a8a8a8a8a8a8a816001600160a01b0381166200009057604051631e4fbdf760e01b81526000600482015260240160405180910390fd5b6200009b8162000138565b5060015550600380546001600160a01b03199081166001600160a01b039b8c1617909155600480548216998b1699909917909855600580548916978a1697909717909655600280548816958916959095179094556006805487169388169390931790925560078054861691871691909117905560088054909416908516179092559082166080521660a05250620002749950505050505050505050565b600080546001600160a01b038381166001600160a01b0319831681178455604051919092169283917f8be0079c531659141344cd1fd0a4f28419497f9722a3daafe3b4186f6b6457e09190a35050565b80516001600160a01b0381168114620001a057600080fd5b919050565b6000806000806000806000806000806101408b8d031215620001c657600080fd5b620001d18b62000188565b9950620001e160208c0162000188565b9850620001f160408c0162000188565b97506200020160608c0162000188565b96506200021160808c0162000188565b95506200022160a08c0162000188565b94506200023160c08c0162000188565b93506200024160e08c0162000188565b9250620002526101008c0162000188565b9150620002636101208c0162000188565b90509295989b9194979a5092959850565b60805160a051612cc7620002d2600039600081816103460152611d120152600081816103ff01528181610e7d01528181610f550152818161102d01528181611e1501528181611ea601528181611f3801526121db0152612cc76000f3fe6080604052600436106101775760003560e01c80638f4e4bd2116100ca578063b9713eb311610079578063f2d6382611610056578063f2d638261461048b578063f2fde38b146104a9578063f5d0fc4b146104c957005b8063b9713eb3146103f0578063ce9e014a14610423578063d985e8fb1461044357005b8063a734f06e116100a7578063a734f06e1461038a578063ab335bfc146103b2578063b88daae9146103d057005b80638f4e4bd214610319578063a154a8b814610337578063a576b5da1461036a57005b806348f63f3311610126578063715018a611610103578063715018a6146102a45780638b8fbd92146102b95780638da5cb5b146102fb57005b806348f63f331461024857806351dc8b89146102685780636284e4c41461028657005b8063391e8ef611610154578063391e8ef6146101ea5780633cac07ee14610208578063472d35b91461022857005b80630a17421214610180578063278135f71461019357806339114651146101b357005b3661017e57005b005b61017e61018e36600461248d565b6104e9565b34801561019f57600080fd5b5061017e6101ae366004612543565b6109cb565b3480156101bf57600080fd5b506005546001600160a01b03165b6040516001600160a01b0390911681526020015b60405180910390f35b3480156101f657600080fd5b506002546001600160a01b03166101cd565b34801561021457600080fd5b5061017e610223366004612543565b610a02565b34801561023457600080fd5b5061017e610243366004612543565b610a39565b34801561025457600080fd5b5061017e610263366004612543565b610a70565b34801561027457600080fd5b506003546001600160a01b03166101cd565b34801561029257600080fd5b506008546001600160a01b03166101cd565b3480156102b057600080fd5b5061017e610aa7565b3480156102c557600080fd5b506102ed7f30644e72e131a029b85045b68181585d2833e84879b9709143e1f593f000000181565b6040519081526020016101e1565b34801561030757600080fd5b506000546001600160a01b03166101cd565b34801561032557600080fd5b506006546001600160a01b03166101cd565b34801561034357600080fd5b507f00000000000000000000000000000000000000000000000000000000000000006101cd565b34801561037657600080fd5b5061017e610385366004612543565b610abb565b34801561039657600080fd5b506101cd73eeeeeeeeeeeeeeeeeeeeeeeeeeeeeeeeeeeeeeee81565b3480156103be57600080fd5b506004546001600160a01b03166101cd565b3480156103dc57600080fd5b5061017e6103eb366004612560565b610af2565b3480156103fc57600080fd5b507f00000000000000000000000000000000000000000000000000000000000000006101cd565b34801561042f57600080fd5b5061017e61043e366004612543565b610ccc565b34801561044f57600080fd5b506102ed6040805173eeeeeeeeeeeeeeeeeeeeeeeeeeeeeeeeeeeeeeee6020820152016040516020818303038152906040528051906020012081565b34801561049757600080fd5b506007546001600160a01b03166101cd565b3480156104b557600080fd5b5061017e6104c4366004612543565b610d03565b3480156104d557600080fd5b5061017e6104e4366004612543565b610d5a565b6105036104fe61022083016102008401612543565b610d91565b60005b6004811015610543576105318260200182600481106105275761052761258c565b6020020135610e4e565b8061053b816125ea565b915050610506565b5061054e8135610f26565b61055c816101e00135610ffe565b61018081013561016082013561057c610140840135610120850135612622565b6105869190612622565b6105909190612622565b6000036105c9576040517f0f3a496e00000000000000000000000000000000000000000000000000000000815260040160405180910390fd5b6105db6101c082016101a08301612543565b6001600160a01b03166105f66101e083016101c08401612543565b6001600160a01b031614610636576040517f6e2c994100000000000000000000000000000000000000000000000000000000815260040160405180910390fd5b61074e83836107136040518060c0016040528086600001358152602001866020016004806020026040519081016040528092919082600460200280828437600092019190915250505081526040805160808181019092526020909201919060a0890190600490839083908082843760009201919091525050508152604080516080818101909252602090920191906101208901906004908390839080828437600092019190915250505081526020016106f76101c088016101a08901612543565b6001600160a01b03168152602001866101e001358152506110d6565b6040518060400160405280601181526020017f63757276654164644c69717569646974790000000000000000000000000000008152506112a3565b61079961076b6107666101c084016101a08501612543565b611428565b6040805160808181019092529060a085019060049083908390808284376000920191909152506114ca915050565b6107cf576040517fa55ad8b000000000000000000000000000000000000000000000000000000000815260040160405180910390fd5b60606107d961246f565b6007546040517f60d43beb0000000000000000000000000000000000000000000000000000000081526001600160a01b03909116906360d43beb9061082c90610120870190610220880190600401612635565b600060405180830381865afa158015610849573d6000803e3d6000fd5b505050506040513d6000823e601f3d908101601f19168201604052610871919081019061276f565b509092509050600061089161088b368690038601866128bd565b84611624565b6003549091506108c7906001600160a01b0316826108b76101e088016101c08901612543565b6001600160a01b03169190611ae7565b6040805160808181019092526109419160a0870190600490839083908082843760009201919091525050604080516080818101909252869250906102208901906004908390839080828437600092019190915250506007546001600160a01b0316905061093c6102208a016102008b01612543565b611b5b565b60006109646109586101e087016101c08801612543565b83876101e00135611d0e565b905061096f81611de6565b61097d856101e00135611f09565b7fb9fd86edd33bde90f7572f2e80cfe6eb767c77b72d0e69f739945c698fd3fe1e856020018284886101e001356040516109ba949392919061296f565b60405180910390a150505050505050565b6109d3611f6f565b6005805473ffffffffffffffffffffffffffffffffffffffff19166001600160a01b0392909216919091179055565b610a0a611f6f565b6004805473ffffffffffffffffffffffffffffffffffffffff19166001600160a01b0392909216919091179055565b610a41611f6f565b6007805473ffffffffffffffffffffffffffffffffffffffff19166001600160a01b0392909216919091179055565b610a78611f6f565b6002805473ffffffffffffffffffffffffffffffffffffffff19166001600160a01b0392909216919091179055565b610aaf611f6f565b610ab96000611fb5565b565b610ac3611f6f565b6008805473ffffffffffffffffffffffffffffffffffffffff19166001600160a01b0392909216919091179055565b610afa611f6f565b60008111610b8f576040517f08c379a000000000000000000000000000000000000000000000000000000000815260206004820152602f60248201527f4261736541737365744d616e616765723a20616d6f756e74206d75737420626560448201527f2067726561746572207468616e2030000000000000000000000000000000000060648201526084015b60405180910390fd5b6001600160a01b0382161580610bc157506001600160a01b03821673eeeeeeeeeeeeeeeeeeeeeeeeeeeeeeeeeeeeeeee145b15610cae576005546040516000916001600160a01b03169083908381818185875af1925050503d8060008114610c13576040519150601f19603f3d011682016040523d82523d6000602084013e610c18565b606091505b5050905080610ca9576040517f08c379a000000000000000000000000000000000000000000000000000000000815260206004820152602660248201527f4261736541737365744d616e616765723a204661696c656420746f2073656e6460448201527f20457468657200000000000000000000000000000000000000000000000000006064820152608401610b86565b505050565b600354610cc8906001600160a01b03848116911683611ae7565b5050565b610cd4611f6f565b6006805473ffffffffffffffffffffffffffffffffffffffff19166001600160a01b0392909216919091179055565b610d0b611f6f565b6001600160a01b038116610d4e576040517f1e4fbdf700000000000000000000000000000000000000000000000000000000815260006004820152602401610b86565b610d5781611fb5565b50565b610d62611f6f565b6003805473ffffffffffffffffffffffffffffffffffffffff19166001600160a01b0392909216919091179055565b6006546040517ffb04c9390000000000000000000000000000000000000000000000000000000081526001600160a01b0383811660048301529091169063fb04c93990602401602060405180830381865afa158015610df4573d6000803e3d6000fd5b505050506040513d601f19601f82011682018060405250810190610e189190612993565b610d57576040517f57bb83ee00000000000000000000000000000000000000000000000000000000815260040160405180910390fd5b6040517f2dee3016000000000000000000000000000000000000000000000000000000008152600481018290527f00000000000000000000000000000000000000000000000000000000000000006001600160a01b031690632dee301690602401602060405180830381865afa158015610ecc573d6000803e3d6000fd5b505050506040513d601f19601f82011682018060405250810190610ef09190612993565b610d57576040517f9281498500000000000000000000000000000000000000000000000000000000815260040160405180910390fd5b6040517f83402ee4000000000000000000000000000000000000000000000000000000008152600481018290527f00000000000000000000000000000000000000000000000000000000000000006001600160a01b0316906383402ee490602401602060405180830381865afa158015610fa4573d6000803e3d6000fd5b505050506040513d601f19601f82011682018060405250810190610fc89190612993565b610d57576040517fdff6282700000000000000000000000000000000000000000000000000000000815260040160405180910390fd5b6040517f63b43fcb000000000000000000000000000000000000000000000000000000008152600481018290527f00000000000000000000000000000000000000000000000000000000000000006001600160a01b0316906363b43fcb90602401602060405180830381865afa15801561107c573d6000803e3d6000fd5b505050506040513d601f19601f820116820180604052508101906110a09190612993565b610d57576040517fc869abd500000000000000000000000000000000000000000000000000000000815260040160405180910390fd5b60408051600f808252610200820190925260609160009190602082016101e0803683370190505090508260000151816000815181106111175761111761258c565b60200260200101818152505060005b600481101561118357836020015181600481106111455761114561258c565b602002015182611156836001612622565b815181106111665761116661258c565b60209081029190910101528061117b816125ea565b915050611126565b5060005b60048110156111ec576111b3846040015182600481106111a9576111a961258c565b6020020151612012565b826111bf836005612622565b815181106111cf576111cf61258c565b6020908102919091010152806111e4816125ea565b915050611187565b5060005b600481101561124d578360600151816004811061120f5761120f61258c565b602002015182611220836009612622565b815181106112305761123061258c565b602090810291909101015280611245816125ea565b9150506111f0565b5061125b8360800151612012565b81600d8151811061126e5761126e61258c565b6020026020010181815250508260a0015181600e815181106112925761129261258c565b602090810291909101015292915050565b6002546040517f3de955440000000000000000000000000000000000000000000000000000000081526000916001600160a01b031690633de95544906112ed9085906004016129d9565b602060405180830381865afa15801561130a573d6000803e3d6000fd5b505050506040513d601f19601f8201168201806040525081019061132e9190612a0c565b6040517fea50d0e40000000000000000000000000000000000000000000000000000000081529091506001600160a01b0382169063ea50d0e49061137a90889088908890600401612a29565b602060405180830381865afa158015611397573d6000803e3d6000fd5b505050506040513d601f19601f820116820180604052508101906113bb9190612993565b611421576040517f08c379a000000000000000000000000000000000000000000000000000000000815260206004820152600d60248201527f696e76616c69642070726f6f66000000000000000000000000000000000000006044820152606401610b86565b5050505050565b6040517f9ac90d3d0000000000000000000000000000000000000000000000000000000081526001600160a01b0382166004820152606090736a8cbed756804b16e05e741edabd5cb544ae21bf90639ac90d3d90602401600060405180830381865afa15801561149c573d6000803e3d6000fd5b505050506040513d6000823e601f3d908101601f191682016040526114c49190810190612aa2565b92915050565b6000805b835181101561161a5760006001600160a01b03168482815181106114f4576114f461258c565b60200260200101516001600160a01b0316031561160857600083826004811061151f5761151f61258c565b60200201516001600160a01b031614611608578381815181106115445761154461258c565b60200260200101516001600160a01b03168382600481106115675761156761258c565b60200201516001600160a01b0316146116085773eeeeeeeeeeeeeeeeeeeeeeeeeeeeeeeeeeeeeeee8382600481106115a1576115a161258c565b60200201516001600160a01b03161480156115fa575073c02aaa39b223fe8d0a0e5c4f27ead9083c756cc26001600160a01b03168482815181106115e7576115e761258c565b60200260200101516001600160a01b0316145b6116085760009150506114c4565b80611612816125ea565b9150506114ce565b5060019392505050565b6000806116348460800151612050565b9050600080600060048411611aab575060005b838110156118db5760008682815181106116635761166361258c565b602002602001015111156118c957604087015173eeeeeeeeeeeeeeeeeeeeeeeeeeeeeeeeeeeeeeee90826004811061169d5761169d61258c565b60200201516001600160a01b0316036117b15782156116e8576040517f0f3a496e00000000000000000000000000000000000000000000000000000000815260040160405180910390fd5b60055460608801516001600160a01b0390911690630357371d90309084600481106117155761171561258c565b60200201516040517fffffffff0000000000000000000000000000000000000000000000000000000060e085901b1681526001600160a01b0390921660048301526024820152604401600060405180830381600087803b15801561177857600080fd5b505af115801561178c573d6000803e3d6000fd5b505050508581815181106117a2576117a261258c565b602002602001015192506118c9565b60035460408801516001600160a01b0390911690638bfb07c99083600481106117dc576117dc61258c565b6020020151308a6060015185600481106117f8576117f861258c565b60200201516040517fffffffff0000000000000000000000000000000000000000000000000000000060e086901b1681526001600160a01b0393841660048201529290911660248301526044820152606401600060405180830381600087803b15801561186457600080fd5b505af1158015611878573d6000803e3d6000fd5b505050506118c987608001518783815181106118965761189661258c565b6020026020010151896040015184600481106118b4576118b461258c565b60200201516001600160a01b031691906120e8565b806118d3816125ea565b915050611647565b86608001516001600160a01b0316633db06dd88760016040518363ffffffff1660e01b815260040161190e929190612b77565b602060405180830381865afa15801561192b573d6000803e3d6000fd5b505050506040513d601f19601f8201168201806040525081019061194f9190612b9b565b915061195c606483612be3565b61196790605f612bf7565b915082156119ec5786608001516001600160a01b031663b72df5de8488856040518463ffffffff1660e01b81526004016119a2929190612c0e565b60206040518083038185885af11580156119c0573d6000803e3d6000fd5b50505050506040513d601f19601f820116820180604052508101906119e59190612b9b565b9150611a64565b86608001516001600160a01b031663b72df5de87846040518363ffffffff1660e01b8152600401611a1e929190612c0e565b6020604051808303816000875af1158015611a3d573d6000803e3d6000fd5b505050506040513d601f19601f82011682018060405250810190611a619190612b9b565b91505b5060005b6004811015611aa657611a9487602001518260048110611a8a57611a8a61258c565b60200201516121ac565b80611a9e816125ea565b915050611a68565b611add565b6040517f36f658fc00000000000000000000000000000000000000000000000000000000815260040160405180910390fd5b5095945050505050565b6040516001600160a01b03838116602483015260448201839052610ca991859182169063a9059cbb906064015b604051602081830303815290604052915060e01b6020820180517bffffffffffffffffffffffffffffffffffffffffffffffffffffffff8381831617835250505050612212565b60005b6004811015611d065773eeeeeeeeeeeeeeeeeeeeeeeeeeeeeeeeeeeeeeee868260048110611b8e57611b8e61258c565b60200201516001600160a01b031603611c75576000836001600160a01b0316868360048110611bbf57611bbf61258c565b6020020151604051600081818185875af1925050503d8060008114611c00576040519150601f19603f3d011682016040523d82523d6000602084013e611c05565b606091505b50509050826001600160a01b0316858360048110611c2557611c2561258c565b6020020151604051600081818185875af1925050503d8060008114611c66576040519150601f19603f3d011682016040523d82523d6000602084013e611c6b565b606091505b50611cf492505050565b6000868260048110611c8957611c8961258c565b60200201516001600160a01b031614611cf457611cde83868360048110611cb257611cb261258c565b6020020151888460048110611cc957611cc961258c565b60200201516001600160a01b03169190611ae7565b611cf482858360048110611cb257611cb261258c565b80611cfe816125ea565b915050611b5e565b505050505050565b60007f00000000000000000000000000000000000000000000000000000000000000006001600160a01b0316639baf459c6040518060600160405280611d5388612012565b8152602081018790526040908101869052517fffffffff0000000000000000000000000000000000000000000000000000000060e084901b168152611d9b9190600401612c30565b602060405180830381865afa158015611db8573d6000803e3d6000fd5b505050506040513d601f19601f82011682018060405250810190611ddc9190612b9b565b90505b9392505050565b6040517f6ae987ed000000000000000000000000000000000000000000000000000000008152600481018290527f00000000000000000000000000000000000000000000000000000000000000006001600160a01b031690636ae987ed90602401600060405180830381600087803b158015611e6157600080fd5b505af1158015611e75573d6000803e3d6000fd5b50506040517fb0fb374d000000000000000000000000000000000000000000000000000000008152600481018490527f00000000000000000000000000000000000000000000000000000000000000006001600160a01b0316925063b0fb374d91506024015b600060405180830381600087803b158015611ef557600080fd5b505af1158015611421573d6000803e3d6000fd5b6040517fc0dd0da5000000000000000000000000000000000000000000000000000000008152600481018290527f00000000000000000000000000000000000000000000000000000000000000006001600160a01b03169063c0dd0da590602401611edb565b6000546001600160a01b03163314610ab9576040517f118cdaa7000000000000000000000000000000000000000000000000000000008152336004820152602401610b86565b600080546001600160a01b0383811673ffffffffffffffffffffffffffffffffffffffff19831681178455604051919092169283917f8be0079c531659141344cd1fd0a4f28419497f9722a3daafe3b4186f6b6457e09190a35050565b600154604080516001600160a01b038416602082015260009291016040516020818303038152906040528051906020012060001c6114c49190612c61565b6040517f940494f10000000000000000000000000000000000000000000000000000000081526001600160a01b0382166004820152600090736a8cbed756804b16e05e741edabd5cb544ae21bf9063940494f190602401602060405180830381865afa1580156120c4573d6000803e3d6000fd5b505050506040513d601f19601f820116820180604052508101906114c49190612b9b565b604080516001600160a01b038416602482015260448082018490528251808303909101815260649091019091526020810180517bffffffffffffffffffffffffffffffffffffffffffffffffffffffff167f095ea7b300000000000000000000000000000000000000000000000000000000179052612167848261228e565b6121a6576040516001600160a01b0384811660248301526000604483015261219c91869182169063095ea7b390606401611b14565b6121a68482612212565b50505050565b6040517f1d9a74e7000000000000000000000000000000000000000000000000000000008152600481018290527f00000000000000000000000000000000000000000000000000000000000000006001600160a01b031690631d9a74e790602401611edb565b60006122276001600160a01b03841683612336565b9050805160001415801561224c57508080602001905181019061224a9190612993565b155b15610ca9576040517f5274afe70000000000000000000000000000000000000000000000000000000081526001600160a01b0384166004820152602401610b86565b6000806000846001600160a01b0316846040516122ab9190612c75565b6000604051808303816000865af19150503d80600081146122e8576040519150601f19603f3d011682016040523d82523d6000602084013e6122ed565b606091505b50915091508180156123175750805115806123175750808060200190518101906123179190612993565b801561232d57506000856001600160a01b03163b115b95945050505050565b6060611ddf8383600084600080856001600160a01b0316848660405161235c9190612c75565b60006040518083038185875af1925050503d8060008114612399576040519150601f19603f3d011682016040523d82523d6000602084013e61239e565b606091505b50915091506123ae8683836123b8565b9695505050505050565b6060826123cd576123c88261242d565b611ddf565b81511580156123e457506001600160a01b0384163b155b15612426576040517f9996b3150000000000000000000000000000000000000000000000000000000081526001600160a01b0385166004820152602401610b86565b5080611ddf565b80511561243d5780518082602001fd5b6040517f1425ea4200000000000000000000000000000000000000000000000000000000815260040160405180910390fd5b60405180608001604052806004906020820280368337509192915050565b60008060008385036102c08112156124a457600080fd5b843567ffffffffffffffff808211156124bc57600080fd5b818701915087601f8301126124d057600080fd5b8135818111156124df57600080fd5b8860208285010111156124f157600080fd5b6020830196508095505050506102a0601f198201121561251057600080fd5b506020840190509250925092565b6001600160a01b0381168114610d5757600080fd5b803561253e8161251e565b919050565b60006020828403121561255557600080fd5b8135611ddf8161251e565b6000806040838503121561257357600080fd5b823561257e8161251e565b946020939093013593505050565b7f4e487b7100000000000000000000000000000000000000000000000000000000600052603260045260246000fd5b7f4e487b7100000000000000000000000000000000000000000000000000000000600052601160045260246000fd5b60007fffffffffffffffffffffffffffffffffffffffffffffffffffffffffffffffff820361261b5761261b6125bb565b5060010190565b808201808211156114c4576114c46125bb565b6101008101608084833760808360808401379392505050565b7f4e487b7100000000000000000000000000000000000000000000000000000000600052604160045260246000fd5b604051610120810167ffffffffffffffff811182821017156126a1576126a161264e565b60405290565b6040516080810167ffffffffffffffff811182821017156126a1576126a161264e565b604051601f8201601f1916810167ffffffffffffffff811182821017156126f3576126f361264e565b604052919050565b600067ffffffffffffffff8211156127155761271561264e565b5060051b60200190565b600082601f83011261273057600080fd5b6127386126a7565b80608084018581111561274a57600080fd5b845b8181101561276457805184526020938401930161274c565b509095945050505050565b6000806000610120848603121561278557600080fd5b835167ffffffffffffffff81111561279c57600080fd5b8401601f810186136127ad57600080fd5b805160206127c26127bd836126fb565b6126ca565b82815260059290921b830181019181810190898411156127e157600080fd5b938201935b838510156127ff578451825293820193908201906127e6565b965061280f90508888830161271f565b94505050506128218560a0860161271f565b90509250925092565b600082601f83011261283b57600080fd5b6128436126a7565b80608084018581111561285557600080fd5b845b81811015612764578035845260209384019301612857565b600082601f83011261288057600080fd5b6128886126a7565b80608084018581111561289a57600080fd5b845b818110156127645780356128af8161251e565b84526020938401930161289c565b60006102a082840312156128d057600080fd5b6128d861267d565b823581526128e9846020850161282a565b60208201526128fb8460a0850161286f565b604082015261290e84610120850161282a565b60608201526129206101a08401612533565b60808201526129326101c08401612533565b60a08201526101e083013560c082015261294f6102008401612533565b60e082015261296284610220850161282a565b6101008201529392505050565b60e0810160808683378460808301528360a08301528260c083015295945050505050565b6000602082840312156129a557600080fd5b81518015158114611ddf57600080fd5b60005b838110156129d05781810151838201526020016129b8565b50506000910152565b60208152600082518060208401526129f88160408501602087016129b5565b601f01601f19169190910160400192915050565b600060208284031215612a1e57600080fd5b8151611ddf8161251e565b60408152826040820152828460608301376000606084830101526000601f19601f8501168201606081016020606085840301818601528186518084526080850191508288019450600093505b80841015612a955784518252938201936001939093019290820190612a75565b5098975050505050505050565b60006020808385031215612ab557600080fd5b825167ffffffffffffffff811115612acc57600080fd5b8301601f81018513612add57600080fd5b8051612aeb6127bd826126fb565b81815260059190911b82018301908381019087831115612b0a57600080fd5b928401925b82841015612b31578351612b228161251e565b82529284019290840190612b0f565b979650505050505050565b600081518084526020808501945080840160005b83811015612b6c57815187529582019590820190600101612b50565b509495945050505050565b604081526000612b8a6040830185612b3c565b905082151560208301529392505050565b600060208284031215612bad57600080fd5b5051919050565b7f4e487b7100000000000000000000000000000000000000000000000000000000600052601260045260246000fd5b600082612bf257612bf2612bb4565b500490565b80820281158282048414176114c4576114c46125bb565b604081526000612c216040830185612b3c565b90508260208301529392505050565b60608101818360005b6003811015612c58578151835260209283019290910190600101612c39565b50505092915050565b600082612c7057612c70612bb4565b500690565b60008251612c878184602087016129b5565b919091019291505056fea26469706673582212204ab7e20b024d716a5686de78e84ee76843eae28af6701cc2d3540aaa793b411b64736f6c63430008140033",
  "linkReferences": {},
  "deployedLinkReferences": {}
}